{
  "_format": "hh-sol-artifact-1",
  "contractName": "TwitterCloneContract",
  "sourceName": "contracts/TwitterContract.sol",
  "abi": [
    {
      "inputs": [],
      "stateMutability": "nonpayable",
      "type": "constructor"
    },
    {
      "anonymous": false,
      "inputs": [
        {
          "indexed": true,
          "internalType": "address",
          "name": "from",
          "type": "address"
        },
        {
          "indexed": false,
          "internalType": "uint256",
          "name": "timestamp",
          "type": "uint256"
        },
        {
          "indexed": false,
          "internalType": "uint256",
          "name": "tweetId",
          "type": "uint256"
        },
        {
          "indexed": false,
          "internalType": "string",
          "name": "username",
          "type": "string"
        },
        {
          "indexed": false,
          "internalType": "string",
          "name": "tweetMessage",
          "type": "string"
        }
      ],
      "name": "userTwitted",
      "type": "event"
    },
    {
      "inputs": [],
      "name": "getOwner",
      "outputs": [
        {
          "internalType": "address",
          "name": "",
          "type": "address"
        }
      ],
      "stateMutability": "view",
      "type": "function"
    },
    {
      "inputs": [],
      "name": "getTweets",
      "outputs": [
        {
          "components": [
            {
              "internalType": "address",
              "name": "from",
              "type": "address"
            },
            {
              "internalType": "uint256",
              "name": "timestamp",
              "type": "uint256"
            },
            {
              "internalType": "uint256",
              "name": "tweetId",
              "type": "uint256"
            },
            {
              "internalType": "string",
              "name": "username",
              "type": "string"
            },
            {
              "internalType": "string",
              "name": "tweetMessage",
              "type": "string"
            }
          ],
          "internalType": "struct TwitterCloneContract.Tweet[]",
          "name": "",
          "type": "tuple[]"
        }
      ],
      "stateMutability": "view",
      "type": "function"
    },
    {
      "inputs": [
        {
          "internalType": "uint256",
          "name": "_tweetId",
          "type": "uint256"
        },
        {
          "internalType": "string",
          "name": "_username",
          "type": "string"
        },
        {
          "internalType": "string",
          "name": "_tweetMessage",
          "type": "string"
        }
      ],
      "name": "postTweet",
      "outputs": [],
      "stateMutability": "payable",
      "type": "function"
    }
  ],
  "bytecode": "0x608060405234801561001057600080fd5b50336000806101000a81548173ffffffffffffffffffffffffffffffffffffffff021916908373ffffffffffffffffffffffffffffffffffffffff160217905550610b2a806100606000396000f3fe6080604052600436106100345760003560e01c8063893d20e814610039578063fc86741f14610064578063fc94e8ad1461008f575b600080fd5b34801561004557600080fd5b5061004e6100ab565b60405161005b91906107d2565b60405180910390f35b34801561007057600080fd5b506100796100d4565b60405161008691906107ed565b60405180910390f35b6100a960048036038101906100a4919061057c565b6102c1565b005b60008060009054906101000a900473ffffffffffffffffffffffffffffffffffffffff16905090565b60606001805480602002602001604051908101604052809291908181526020016000905b828210156102b857838290600052602060002090600502016040518060a00160405290816000820160009054906101000a900473ffffffffffffffffffffffffffffffffffffffff1673ffffffffffffffffffffffffffffffffffffffff1673ffffffffffffffffffffffffffffffffffffffff1681526020016001820154815260200160028201548152602001600382018054610195906109bc565b80601f01602080910402602001604051908101604052809291908181526020018280546101c1906109bc565b801561020e5780601f106101e35761010080835404028352916020019161020e565b820191906000526020600020905b8154815290600101906020018083116101f157829003601f168201915b50505050508152602001600482018054610227906109bc565b80601f0160208091040260200160405190810160405280929190818152602001828054610253906109bc565b80156102a05780601f10610275576101008083540402835291602001916102a0565b820191906000526020600020905b81548152906001019060200180831161028357829003601f168201915b505050505081525050815260200190600101906100f8565b50505050905090565b60003411610304576040517f08c379a00000000000000000000000000000000000000000000000000000000081526004016102fb9061080f565b60405180910390fd5b60016040518060a001604052803373ffffffffffffffffffffffffffffffffffffffff16815260200142815260200185815260200184815260200183815250908060018154018082558091505060019003906000526020600020906005020160009091909190915060008201518160000160006101000a81548173ffffffffffffffffffffffffffffffffffffffff021916908373ffffffffffffffffffffffffffffffffffffffff160217905550602082015181600101556040820151816002015560608201518160030190805190602001906103e392919061045c565b50608082015181600401908051906020019061040092919061045c565b5050503373ffffffffffffffffffffffffffffffffffffffff167fb6921551a90ad0245cc258a927af85c3da3c26749b3e005d6da6561a2a71a02f4285858560405161044f949392919061082f565b60405180910390a2505050565b828054610468906109bc565b90600052602060002090601f01602090048101928261048a57600085556104d1565b82601f106104a357805160ff19168380011785556104d1565b828001600101855582156104d1579182015b828111156104d05782518255916020019190600101906104b5565b5b5090506104de91906104e2565b5090565b5b808211156104fb5760008160009055506001016104e3565b5090565b600061051261050d846108a7565b610882565b90508281526020810184848401111561052a57600080fd5b61053584828561097a565b509392505050565b600082601f83011261054e57600080fd5b813561055e8482602086016104ff565b91505092915050565b60008135905061057681610add565b92915050565b60008060006060848603121561059157600080fd5b600061059f86828701610567565b935050602084013567ffffffffffffffff8111156105bc57600080fd5b6105c88682870161053d565b925050604084013567ffffffffffffffff8111156105e557600080fd5b6105f18682870161053d565b9150509250925092565b60006106078383610737565b905092915050565b6106188161093e565b82525050565b6106278161093e565b82525050565b6000610638826108e8565b610642818561090b565b935083602082028501610654856108d8565b8060005b85811015610690578484038952815161067185826105fb565b945061067c836108fe565b925060208a01995050600181019050610658565b50829750879550505050505092915050565b60006106ad826108f3565b6106b7818561091c565b93506106c7818560208601610989565b6106d081610a7d565b840191505092915050565b60006106e6826108f3565b6106f0818561092d565b9350610700818560208601610989565b61070981610a7d565b840191505092915050565b600061072160288361092d565b915061072c82610a8e565b604082019050919050565b600060a08301600083015161074f600086018261060f565b50602083015161076260208601826107b4565b50604083015161077560408601826107b4565b506060830151848203606086015261078d82826106a2565b915050608083015184820360808601526107a782826106a2565b9150508091505092915050565b6107bd81610970565b82525050565b6107cc81610970565b82525050565b60006020820190506107e7600083018461061e565b92915050565b60006020820190508181036000830152610807818461062d565b905092915050565b6000602082019050818103600083015261082881610714565b9050919050565b600060808201905061084460008301876107c3565b61085160208301866107c3565b818103604083015261086381856106db565b9050818103606083015261087781846106db565b905095945050505050565b600061088c61089d565b905061089882826109ee565b919050565b6000604051905090565b600067ffffffffffffffff8211156108c2576108c1610a4e565b5b6108cb82610a7d565b9050602081019050919050565b6000819050602082019050919050565b600081519050919050565b600081519050919050565b6000602082019050919050565b600082825260208201905092915050565b600082825260208201905092915050565b600082825260208201905092915050565b600061094982610950565b9050919050565b600073ffffffffffffffffffffffffffffffffffffffff82169050919050565b6000819050919050565b82818337600083830152505050565b60005b838110156109a757808201518184015260208101905061098c565b838111156109b6576000848401525b50505050565b600060028204905060018216806109d457607f821691505b602082108114156109e8576109e7610a1f565b5b50919050565b6109f782610a7d565b810181811067ffffffffffffffff82111715610a1657610a15610a4e565b5b80604052505050565b7f4e487b7100000000000000000000000000000000000000000000000000000000600052602260045260246000fd5b7f4e487b7100000000000000000000000000000000000000000000000000000000600052604160045260246000fd5b6000601f19601f8301169050919050565b7f43616e277420747765657420666f7220667265652c4a7573742070617920736f60008201527f6d65206761732021000000000000000000000000000000000000000000000000602082015250565b610ae681610970565b8114610af157600080fd5b5056fea26469706673582212208358eac64b42abf0e3b7abce95c74a9c2cd870b8d5505858bbcf0a823822c8b664736f6c63430008040033",
  "linkReferences": {},
  "deployedLinkReferences": {}
}